:020000000127D6
:10001B0001913F065B4F666D7D077F6F90001D7AE8
:10002B00007830758916C2D5758D3C758BB0758C83
:10003B0000758A0075885075A888BA141C758800DD
:10004B0075A8007A00E58A75F00A8485F03075F0A2
:10005B000A8485F031F532D2D5E693F58075907F21
:10006B0011997590FF08E693F5807590BF119975FE
:10007B0090FF08E693F5807590DF11997590FF78E6
:10008B003020D5A20145758D3C758BB00A327F00AF
:03009B00DFFE2263
:00000001FF
