:02000000803A44
:100033007D327C64DCFEDDFA2275B0FCE5B0B4FCF5
:100043000280F6120033E5B0B4FC0280EC64FCF8E5
:1000530075B003E5B0640348F875B0FCE5B0B4FCD3
:10006300F8120033E5B0B4FCF0E8B40502802DB417
:100073000902802FB411028031B421028033B441CC
:10008300028035B406028037B40A028039B4120202
:10009300803BB42202803DB4429F803F75803FC2C3
:1000A300A08096758006C2A0808F75805BC2A080F9
:1000B3008875804FC2A08081758066C2A0013C759F
:1000C300806DC2A0013C75807DC2A0013C75800794
:1000D300C2A0013C75807FC2A0013C75806FC2A0A5
:0200E300013CDE
:00000001FF
